:02000002B0004C
:1040000000400B00EC5E0B00000006000C000502F7
:084010000401A50F00000000EF
:044018000C5B0B0032
:1040200009480A49884208B505D0094A824202D0A7
:10403000121A01F0B9FC0748074A0021121A01F0D0
:10404000C1FC014808BD00BFD8E50320385E0B0065
:1040500064E6032068E60320F1E7032070B5074E0D
:10406000074C00F02FFDA41BA4080025AC4200D192
:1040700070BD56F8043B98470135F7E7E85D0B0043
:104080000C5E0B0000F018B808B500F021F9BDE88F
:10409000084000F0CFBC00F03DBB00F043BB00780F
:1040A000B0FA80F040097047012303707047002385
:1040B000022200F01FBB000037B52A492A48FFF74B
:1040C000F6FF2A492A48FFF7F2FF2A492A48FFF754
:1040D000EEFF2A492A48FFF7EAFF2A492A48002327
:1040E000092200F007FB0024B425284928480023B2
:1040F000092200F0FFFACDE900454FF416634FF4B2
:1041000008720221234800F0BBFB4FF416634FF402
:104110000872CDE9004505211F4800F0B1FB21469A
:104120000F2000F0C3FF21460E2000F0BFFF1B4907
:104130001B48FFF7BCFF1B491B48FFF7B8FF1B4993
:104140001B48FFF7B4FF1B491B48FFF7B0FF1B4993
:104150001B48FFF7ACFF1B491B4803B0BDE83040CC
:10416000FFF7A5BF74E60320205B0B0078E6032071
:104170002D5B0B007CE603203A5B0B0080E60320FE
:10418000475B0B00A8E60320545B0B00B0E603205E
:10419000695B0B0084E6032094E60320B8E6032065
:1041A0007E5B0B0070E60320925B0B00E8E50320CA
:1041B000A85B0B00ECE50320B65B0B006CE603206C
:1041C000C45B0B0068E60320CF5B0B0008B5154A03
:1041D000154B12681B6815491344154A0968126883
:1041E0000A4402EBD27203EBD373124952105810F7
:1041F000C2EB63030B606433C82B0CD90E499042A9
:104200000B680ADD013BB42BC8BFB4230B600968FF
:104210000A4800F0F8FA012008BDF8DA013348BF77
:104220000023F3E77CE6032074E6032080E6032006
:1042300078E6032070E60320E8E5032084E6032007
:1042400008B5194B19491A68194B09681B681948B0
:104250001A4402EBD272184B52101A60174B1B68AB
:104260000B4403EBD37316495B100B60D11A01604A
:104270006431C8290CD913489A4201680DDD01390F
:1042800008D401600168104800F0BDFAFFF79EFFF6
:10429000012008BD00230360F4E7F3DA0131B429FB
:1042A000EFDDB423F7E700BF7CE6032078E60320C8
:1042B00080E60320B8E603206CE6032074E60320C2
:1042C00068E60320ECE5032094E6032000000000EC
:1042D00008B5274B188800F0FAFE264B1860264BCD
:1042E000188800F0F4FE254B1860254B188800F064
:1042F000EEFE244B1860244B188800F0E8FE234B98
:104300001860234B188800F0E2FE01F0CBF814A3EC
:10431000D3E9002301F030F913A3D3E9002301F01E
:1043200055FA1C4BC3E900011B4B188800F0CFFE67
:1043300001F0B8F80AA3D3E9002301F01DF90AA39C
:10434000D3E9002301F042FA144BC3E90001C8206D
:1043500000F044FBFFF774FFBDE80840FFF736BFED
:104360006666666666660A400000000000FEAF40B2
:10437000D8E5032074E60320DCE5032078E603207B
:10438000E0E503207CE60320E4E5032080E603204B
:10439000F0E50320A8E60320F4E50320B0E60320BF
:1043A00008B5044800F058FABDE80840024800F09B
:1043B00053BA00BF84E6032094E6032008B5024BFD
:1043C0001B689B68019308BD6802030008B5024B97
:1043D0001B68DB68019308BD6802030008B5024B47
:1043E0001B685B68019308BD2C02030008B5024BF3
:1043F0001B689B68019308BD2C02030008B5024BA3
:104400001B681B6B019308BD2C02030008B5024B0F
:104410001B685B68019308BD1802030008B5024BD6
:104420001B685B69019308BD1802030008B5024BC5
:104430001B685B6C019308BD4802030008B5024B82
:104440001B685B69019308BD6402030008B5024B59
:104450001B68DB68019308BD3C02030008B5024BF2
:104460001B681B69019308BD3C02030008B5024BA1
:104470001B685B69019308BD3C02030008B5024B51
:104480001B689B69019308BD3C02030008B5024B01
:104490001B68DB69019308BD3C02030008B5024BB1
:1044A0001B681B6A019308BD3C02030008B5024B60
:1044B0001B689B6A019308BD3C02030008B5024BD0
:1044C0001B681B6C019308BD3C02030008B5024B3E
:1044D0001B681B6A019308BD2802030008B5024B44
:1044E0001B685B6A019308BD2802030008B5024BF4
:1044F0001B689B6A019308BD2802030008B5024BA4
:104500001B68DB6A019308BD2802030008B5024B53
:104510001B681B6B019308BD2802030008B5024B02
:104520001B685B6B019308BD2802030008B5024BB2
:104530001B681B6C019308BD2802030008B5024BE1
:104540001B68DB69019308BD3002030008B5024B0C
:104550001B681B6A019308BD3002030008B5024BBB
:104560001B681B69019308BD2402030008B5024BB8
:104570001B685B69019308BD2402030008B5024B68
:104580001B689B69019308BD2402030008B5024B18
:104590001B681B68019308BD4C02030008B5024B61
:1045A0001B681B69019308BD4C02030008B5024B50
:1045B0001B685B69019308BD4C02030008B5024B00
:1045C0001B689B69019308BD4C02030008B5024BB0
:1045D0001B68DB69019308BD4C02030008B5024B60
:1045E0001B681B6A019308BD4C02030008B5024B0F
:1045F0001B685B68019308BD2002030008B5024BED
:104600001B685B69019308BD2002030008B5034BDA
:104610001B68D3F88830019308BD00002002030016
:1046200008B5034B1B68D3F89430019308BD000014
:104630002002030008B5024B1B685B68019308BDAC
:104640004002030008B5024B1B689B68019308BD3C
:104650004002030008B5024B1B68DB68019308BDEC
:104660004002030008B5024B1B681B69019308BD9B
:104670004002030008B5024B1B685B69019308BD4B
:104680004002030008B5024B1B689B69019308BDFB
:104690004002030008B5024B1B68DB69019308BDAB
:1046A0004002030008B5024B1B681B6A019308BD5A
:1046B0004002030008B5024B1B681B6B019308BD49
:1046C0004002030008B5024B1B685B6B019308BDF9
:1046D0004002030008B5024B1B681B6C019308BD28
:1046E0004002030008B5024B1B685B6C019308BDD8
:1046F0004002030008B5024B1B681B68019308BD0C
:104700004402030008B5024B1B68DB6B019308BD34
:104710004402030008B5024B1B681B68019308BDE7
:104720001C02030008B5024B1B685B68019308BDBF
:104730001C02030008B5024B1B681B6C019308BDEB
:104740001C02030008B5024B1B685B6C019308BD9B
:104750001C020300002240681146FFF7A3BF00229D
:1047600040681146FFF7AEBF40680022FFF7A2BFC6
:104770004068002281F00101FFF78CBF00234068F0
:104780001A461946FFF77EBF002340681A461946AD
:10479000FFF770BF002240681146FFF763BF002299
:1047A00040681146FFF74EBF406800220221FFF724
:1047B00051BF002340681A46FFF73CBF024B03225B
:1047C0005A60024A1A607047BCE60320E85B0B009F
:1047D00010B5044608462170FFF7B0FE0023636061
:1047E000204610BDB0F90020531C0BD043888088B0
:1047F0008B4203D88842034628BF0B46194690B225
:10480000FFF7BCBE704713B504460846B4F906105E
:10481000B4F90820884210DB9042A8BF1046A38854
:104820000093638800F0CEF8E168014489B2204625
:1048300002B0BDE81040FFF7D5BF0846EFE7000023
:10484000044A4FF41663C0E90023B4230381002314
:10485000C3607047FFFF200208B5FFF7F1FF08BDF6
:1048600010B50446B0F90000431C07D080B2FFF732
:104870007DFE2046FFF7E4FF012010BD0020FCE78D
:104880002DE9F0410D4604460221284690461F4678
:10489000FFF7A4FD022803D000263046BDE8F081D2
:1048A000284600F0C5FB06460028F5D0B4F90030D4
:1048B000013302D02046FFF7D3FFBDF91830E38063
:1048C000BDF91C302580A4F80280A78023812846EA
:1048D000FFF744FEE1E70000054B02221A60054B9A
:1048E000054A9A600020C3E90000FFF77FBE00BFC1
:1048F000D0E60320C4E603200000FFFF02480023A7
:104900000360FFF793BD00BFD4E60320F8B5064669
:104910000D468F180024BD420CD0336815F8011BDA
:104920009B6830469847031E01DB1C44F3E7002CCC
:1049300008BF1C462046F8BD13B50446084659B1C9
:10494000019101F075F823680199DB680246204661
:1049500002B0BDE81040184702B010BD03689B6864
:10496000184730B58BB00023012A8DF8243098BF4A
:104970000A2209AC0D46B1FBF2F101FB125303F020
:10498000FF03092B94BF30333733DBB2AA4204F85C
:10499000013DEFD92146FFF7CFFF0BB030BD00003E
:1049A000014B024A1A607047D8E603201C5C0B00DA
:1049B000024B1A68024B1A60704700BFF8E50320EB
:1049C000DCE603208A4210B507D0441A0298C01AC8
:1049D0004443501A94FBF0F0184410BD0021FFF737
:1049E0000DBE0000014B00229A607047E0E60320F4
:1049F000014B1860704700BFFCE5032008B50B4B66
:104A000043B100F063F903681B699847002801DD92
:104A1000AFF30080064B43B100F08CFB03681B69C9
:104A20009847002801DDAFF3008008BD00000000BA
:104A30000000000008B5FFF7E1FFFFF7EFFC014BB6
:104A4000186008BD44E703200548064A064908B532
:104A5000121A00F0A9FF054B054A1A6008BD00BFF5
:104A600000F4032004F40320345E0B0000F4032060
:104A70001E1C279A07B5002300931A466FF0770192
:104A8000FFF7CEFD03B05DF804FB000007B54388D7
:104A90000A2B08D0502B0BD1094B1B684BB103B02C
:104AA0005DF804EB1847FFF7E5FF03B05DF804FB82
:104AB000002300931A466FF07701FFF7B1FDF4E78A
:104AC000F4E6032010B512480021FFF73BFE114B1E
:104AD0001A68114B9A42114B0CBF012200221A7026
:104AE00001D0FFF7B1FFFFF791FC044600F072FF21
:104AF0000B4B13B12046AFF3008000210848FFF7AD
:104B000001FEBDE8104007480021FFF77FBD00BF50
:104B1000F1490B0000F403201E1C279AF0E6032045
:104B2000000000008D4A0B00704710B518210446A4
:104B3000FFF7B3FA204610BDF0B5037D062B8DB00C
:104B40000E4600F104074FF0000412D000F10805F2
:104B500015F8011D0A223046FFF703FFAF42044457
:104B600019D0002CF4D02E213046FFF7F7FE044474
:104B7000EEE72F236A4639460A208DF80040FFF7FA
:104B80005DFC684600F054FF33680246DB68694606
:104B900030469847044620460DB0F0BD10B5054B91
:104BA0000446112240F8043B002100F00BFF204690
:104BB00010BD00BF445C0B000346074A10B543F824
:104BC000042B01F1100251F8044B43F8044B9142BD
:104BD000F9D10A781A7010BD445C0B0010B59DF82D
:104BE000084044EA032343EA024242EA0161042303
:104BF0004160037510BD000007B5064B0360CB781C
:104C000000938B784A780978FFF7E8FF03B05DF8E6
:104C100004FB00BF445C0B00417470477047704751
:104C200008B50021007CFFF7C9FC40EAE07008BD30
:104C300008B50121007CFFF7C1FC40EAE07008BD27
:104C400008B5007CFFF7B2FC20EAE07008BD08B5AB
:104C5000007CFFF7A3FC20EAE07008BD13B5044612
:104C6000007C0191FFF7A2FC0028019901DC607C27
:104C700020B1207CFFF7AAFC20EAE07002B010BD52
:104C8000007CFFF7ABBC10B514210446FFF705FA12
:104C9000204610BD10B54FF47A7304460846002133
:104CA000C4E90113044B236001232074637411468B
:104CB000FFF76CFC204610BD585C0B0010B51422A9
:104CC0000446002100F07EFE204610BD10B50F4CBA
:104CD00088B003A8FFF7F2FF2178BFF35B8F11F0D4
:104CE00001010FD120460191FFF7D9F9019948B18F
:104CF00003AA0748FFF7CEFF2046FFF7D5F905487E
:104D000000F04CFE024808B010BD00BFF8E60320DA
:104D1000FCE603201D4C0B0070474174704708B53A
:104D2000007CFFF7C3FB20EAE07008BD08B5007CFB
:104D3000FFF794FB20EAE07008BD08B5007CFFF7A0
:104D40009DFB40EAE07008BD08B5007CFFF78EFBD4
:104D500040EAE07008BD007CFFF798BB37B5457CA2
:104D600004462DB1207C03B0BDE83040FFF76EBB98
:104D7000007C0191FFF79AFB00280199F2DC28469C
:104D800003B030BD10B514210446FFF786F9204664
:104D900010BD000010B54FF47A7304460846114662
:104DA0000022C4E90123044B2360012320746374AF
:104DB000FFF784FB204610BD885C0B007047F8B5F8
:104DC000064615460C468F18BC4206D0336814F8C8
:104DD000011B9B6830469847F6E72846F8BD007CE3
:104DE0000022FFF773BB007C0021FFF777BB007C3C
:104DF0000021FFF77BBB007C0021FFF77FBB007C1D
:104E00000021FFF783BB10B514210446FFF745F9D5
:104E1000204610BD38B5044615464FF47A7300227B
:104E2000C4E90123094B2174084623602946FFF792
:104E30007DFBBF3008D16B69DB0705D56868FFF7DC
:104E400071FCE868FFF76EFC204638BDB85C0B00CB
:104E5000002240681146FFF705BC00224068114659
:104E6000FFF720BC002240681146FFF72BBC4068CA
:104E70000022FFF71FBC4068002281F00101FFF70C
:104E800009BC002340681A461946FFF7FBBB002304
:104E900040681A461946FFF7EDBB002240681146EC
:104EA000FFF7D0BB406800220221FFF7D3BB0023ED
:104EB00040681A46FFF7BEBB024B04225A60024A02
:104EC0001A60704710E70320E05C0B000023406885
:104ED0001A46FFF7AFBB406800220221FFF7BABBBA
:104EE000002240681146FFF7ADBB00224068114622
:104EF000FFF7B8BB002340681A461946FFF7BABB54
:104F0000002340681A461946FFF7BCBB40680021E1
:104F1000FFF7E0BB40680021FFF7E4BB40680022D8
:104F200081F00101FFF7B6BB40680022FFF7C2BB6A
:104F3000002240681146FFF7C5BB002240681146B9
:104F4000FFF7B0BB2DE9F04395B014460D46074678
:104F5000FFF724FE00211C220DA8009100F032FD75
:104F600040230C9320466B460CAA0021FFF72EFA33
:104F7000044600284BD1024601216868FFF772FB06
:104F80000221804622466868FFF76CFB009E81463E
:104F90002146002E3BD0002939D17368022B03D063
:104FA0000A2B11D0F669F4E7B8F1000FFAD0716955
:104FB00006A8043107ADFFF71FFE0FCD3C1D0FC43F
:104FC0002B6823704146EDE7B9F1000FEAD0746910
:104FD000102201A800F0F6FC06238DF8143001AD74
:104FE00004F108031834186859682A4603C20833C4
:104FF000A3421546F7D101A906A807ADFFF7DCFDCE
:105000000FCD3C1D0FC42B6823704946CAE700989A
:10501000FFF7D4F9384615B0BDE8F083024B034AD8
:105020001A6000225A60704718E703201C5D0B00CD
:10503000232813B502D9002002B010BDA0F10B0344
:10504000022B1AD8174C2178BFF35B8F11F00101A6
:105050000BD120460191FFF722F8019928B112489F
:10506000FFF7B6FB2046FFF71FF80F4B1878FFF746
:105070006DFA0028DFD10120DEE7012809D800F011
:1050800099F80021007CFFF749FA80F00100C0B2D6
:10509000D2E709380128EED800F04CF8007CFFF781
:1050A000FDF9F2E720E7032024E70320232838B5A1
:1050B00004460D460AD8FF2908D0FFF7B9FF28B1EA
:1050C00029462046BDE83840FFF790B938BD0D2885
:1050D00010B504469CBF0E34A4B22046FFF7A8FFCB
:1050E00050B103212046FFF779F9032804D1204667
:1050F000BDE81040FFF782B9002010BD70470000E6
:1051000038B5044614252A46002100F05BFC2580B2
:105110004025074925812846258200F06FF804497B
:105120006060284600F06AF8E060204638BD00BFA5
:10513000505D0B0030B50E4D2978BFF35B8F11F039
:10514000010487B011D12846FEF7A9FF68B101A874
:10515000FFF7D6FF01AA21460648FFF71BFE2846A7
:10516000FEF7A2FF044800F019FC024807B030BD6A
:105170002CE7032030E70320FD500B0070470000B0
:1051800038B50A4B036001230446436108492020D7
:1051900000F034F8202560600549A560284600F03D
:1051A0002DF8C4E90305204638BD00BF18000100F2
:1051B000505D0B0030B50E4D2978BFF35B8F11F0B9
:1051C000010487B011D12846FEF769FF68B168462F
:1051D000FFF7D6FF6A4621460648FFF71BFE284622
:1051E000FEF762FF044800F0D9FB024807B030BD6B
:1051F00048E703204CE703207D510B00FEF74BBF2F
:1052000081F0004102E000BF83F0004330B54FEA77
:1052100041044FEA430594EA050F08BF90EA020FE4
:105220001FBF54EA000C55EA020C7FEA645C7FEA77
:10523000655C00F0E2804FEA5454D4EB5555B8BF9A
:105240006D420CDD2C4480EA020281EA030382EA0B
:10525000000083EA010180EA020281EA0303362D9D
:1052600088BF30BD11F0004F4FEA01314FF4801C70
:105270004CEA113102D0404261EB410113F0004F82
:105280004FEA03334CEA133302D0524263EB430339
:1052900094EA050F00F0A780A4F10104D5F1200ED7
:1052A0000DDB02FA0EFC22FA05F2801841F1000132
:1052B00003FA0EF2801843FA05F359410EE0A5F106
:1052C00020050EF1200E012A03FA0EFC28BF4CF037
:1052D000020C43FA05F3C01851EBE37101F00045ED
:1052E00007D54FF0000EDCF1000C7EEB00006EEBFA
:1052F0000101B1F5801F1BD3B1F5001F0CD3490884
:105300005FEA30004FEA3C0C04F101044FEA4452DA
:1053100012F5800F80F09A80BCF1004F08BF5FEA61
:10532000500C50F1000041EB045141EA050130BD41
:105330005FEA4C0C404141EB0101013C28BFB1F553
:10534000801FE9D291F0000F04BF01460020B1FA9E
:1053500081F308BF2033A3F10B03B3F120020CDA71
:105360000C3208DD02F1140CC2F10C0201FA0CF04F
:1053700021FA02F10CE002F11402D8BFC2F1200CB4
:1053800001FA02F120FA0CFCDCBF41EA0C0190406A
:10539000E41AA2BF01EB0451294330BD6FEA0404B3
:1053A0001F3C1CDA0C340EDC04F11404C4F120029E
:1053B00020FA04F001FA02F340EA030021FA04F3B0
:1053C00045EA030130BDC4F10C04C4F1200220FA07
:1053D00002F001FA04F340EA0300294630BD21FA45
:1053E00004F0294630BD94F0000F83F4801306BF0B
:1053F00081F480110134013D4EE77FEA645C18BFFF
:105400007FEA655C29D094EA050F08BF90EA020F95
:1054100005D054EA000C04BF1946104630BD91EA8D
:10542000030F1EBF0021002030BD5FEA545C05D190
:105430004000494128BF41F0004130BD14F58004CF
:105440003CBF01F5801130BD01F0004545F0FE4143
:1054500041F470014FF0000030BD7FEA645C1ABF78
:10546000194610467FEA655C1CBF0B46024650EAAF
:10547000013406BF52EA033591EA030F41F40021DB
:1054800030BD00BF90F0000F04BF0021704730B561
:105490004FF4806404F132044FF000054FF0000136
:1054A00050E700BF90F0000F04BF0021704730B5F7
:1054B0004FF4806404F1320410F0004548BF4042CC
:1054C0004FF000013EE700BF42004FEAE2014FEA21
:1054D00031014FEA02701FBF12F07F4393F07F4FFC
:1054E00081F06051704732F07F4208BF704793F0FF
:1054F0007F4F04BF41F40021704730B54FF4607412
:1055000001F0004521F000411CE700BF50EA010214
:1055100008BF704730B54FF000050AE050EA0102BD
:1055200008BF704730B511F0004502D5404261EB2D
:1055300041014FF4806404F132045FEA915C3FF46E
:10554000D8AE4FF003025FEADC0C18BF03325FEA0B
:10555000DC0C18BF033202EBDC02C2F1200300FABC
:1055600003FC20FA02F001FA03FE40EA0E0021FAE1
:1055700002F11444BDE600BF70B54FF0FF0C4CF4CF
:10558000E06C1CEA11541DBF1CEA135594EA0C0F81
:1055900095EA0C0F00F0DEF82C4481EA030621EABC
:1055A0004C5123EA4C5350EA013518BF52EA0335F7
:1055B00041F4801143F4801338D0A0FB02CE4FF0A9
:1055C0000005E1FB02E506F00042E0FB03E54FF0D9
:1055D0000006E1FB03569CF0000F18BF4EF0010ED1
:1055E000A4F1FF04B6F5007F64F5407404D25FEACD
:1055F0004E0E6D4146EB060642EAC62141EA555180
:105600004FEAC52040EA5E504FEACE2EB4F1FD0CC1
:1056100088BFBCF5E06F1ED8BEF1004F08BF5FEA3F
:10562000500E50F1000041EB045170BD06F00046F1
:1056300046EA010140EA020081EA0301B4EB5C049E
:10564000C2BFD4EB0C0541EA045170BD41F4801196
:105650004FF0000E013C00F3AB8014F1360FDEBFBB
:10566000002001F0004170BDC4F10004203C35DA97
:105670000C341BDC04F11404C4F1200500FA05F31A
:1056800020FA04F001FA05F240EA020001F00042BB
:1056900021F0004110EBD37021FA04F642EB060131
:1056A0005EEA430E08BF20EAD37070BDC4F10C045B
:1056B000C4F1200500FA04F320FA05F001FA04F21F
:1056C00040EA020001F0004110EBD37041F100010B
:1056D0005EEA430E08BF20EAD37070BDC4F1200516
:1056E00000FA05F24EEA020E20FA04F301FA05F27E
:1056F00043EA020321FA04F001F0004121FA04F226
:1057000020EA020000EBD3705EEA430E08BF20EAF5
:10571000D37070BD94F0000F0FD101F0004640002F
:1057200041EB010111F4801F08BF013CF7D041EAB1
:10573000060195F0000F18BF704703F000465200B5
:1057400043EB030313F4801F08BF013DF7D043EA86
:105750000603704794EA0C0F0CEA135518BF95EA3C
:105760000C0F0CD050EA410618BF52EA4306D1D1C3
:1057700081EA030101F000414FF0000070BD50EAE2
:10578000410606BF1046194652EA430619D094EA6C
:105790000C0F02D150EA013613D195EA0C0F05D156
:1057A00052EA03361CBF104619460AD181EA0301AA
:1057B00001F0004141F0FE4141F470014FF0000062
:1057C00070BD41F0FE4141F4780170BD70B54FF0FD
:1057D000FF0C4CF4E06C1CEA11541DBF1CEA13557D
:1057E00094EA0C0F95EA0C0F00F0A7F8A4EB05045F
:1057F00081EA030E52EA03354FEA013100F0888056
:105800004FEA03334FF0805545EA131343EA12631E
:105810004FEA022245EA111545EA10654FEA0026D3
:105820000EF000419D4208BF964244F1FD0404F58C
:10583000407402D25B084FEA3202B61A65EB0305E8
:105840005B084FEA32024FF480104FF4002CB6EBA5
:10585000020E75EB030E22BFB61A754640EA0C0025
:105860005B084FEA3202B6EB020E75EB030E22BF65
:10587000B61A754640EA5C005B084FEA3202B6EBA6
:10588000020E75EB030E22BFB61A754640EA9C0065
:105890005B084FEA3202B6EB020E75EB030E22BF35
:1058A000B61A754640EADC0055EA060E18D04FEAF3
:1058B000051545EA16754FEA06164FEAC30343EA93
:1058C00052734FEAC2025FEA1C1CC0D111F4801F60
:1058D0000BD141EA00014FF000004FF0004CB6E759
:1058E00011F4801F04BF01430020B4F1FD0C88BFF8
:1058F000BCF5E06F3FF6AFAEB5EB030C04BFB6EB03
:10590000020C5FEA500C50F1000041EB045170BDF5
:105910000EF0004E4EEA113114EB5C04C2BFD4EB22
:105920000C0541EA045170BD41F480114FF0000EA6
:10593000013C90E645EA060E8DE60CEA135594EA22
:105940000C0F08BF95EA0C0F3FF43BAF94EA0C0F25
:105950000AD150EA01347FF434AF95EA0C0F7FF49A
:1059600025AF104619462CE795EA0C0F06D152EAEE
:1059700003353FF4FDAE1046194622E750EA4106D2
:1059800018BF52EA43067FF4C5AE50EA41047FF4E3
:105990000DAF52EA43057FF4EBAE12E70023014658
:1059A0001A46184600F04CB80A44914200F1FF3301
:1059B00000D1704710B511F8014B03F8014F914227
:1059C000F9D110BD02440346934200D1704703F859
:1059D000011BF9E738B5104B1D68AB6B0446B3B932
:1059E0001820FEF797FE0246A86320B90B4B0C481F
:1059F0004221FEF79FFE0B490B4BC0E900130B4BF6
:105A000083600B23838100210120C2E90401AB6B79
:105A100000221C615A6138BDFCE50320515D0B007A
:105A2000685D0B000E33CDAB34126DE6ECDE050085
:105A3000034613F8012B002AFBD1181A01387047CE
:105A40002DE9F843DFF8B8800646D8F800001F4675
:105A50000D46914600F056F8254B1C6834B9254C8C
:105A60001C60254B13B11B68C4F8883063681F2B7A
:105A700007DDD8F8000000F047F84FF0FF30BDE830
:105A8000F8834EB3D4F8880088B91C4B23B9D8F8F2
:105A9000000000F038F8F0E74FF48470FEF73AFEAB
:105AA0000028F4D00023C0E94033C4F888006368BC
:105AB00040F8239001229A4000EB8301D0F8003196
:105AC0001343C0F80031022EC1F8807002BFD0F835
:105AD00004311343C0F804316368D8F800005A1C3D
:105AE0000233626044F8235000F00EF80020C6E74D
:105AF000ECE7032060E703200000000015470B00DF
:105B000060E60320704770477047000021400B009B
:105B10005D400B0085400B0089400B000000000039
:105B20006C64722072656164696E6731006C6472C6
:105B30002072656164696E6732006C647220726500
:105B40006164696E6733006C6472207265616469B8
:105B50006E673400736F6C61722070616E656C20CB
:105B60006F6E6520766F6C7400736F6C617220705D
:105B7000616E656C2074776F20766F6C740076654B
:105B800072746963616C20646966666572656E63D0
:105B90006500686F72697A6F6E74616C2064696603
:105BA000666572656E636500736572766F206F6EF1
:105BB0006520706F7300736572766F2074776F2045
:105BC000706F730061766572616765546F70006114
:105BD000766572616765426F74746F6D00000000D6
:105BE0000000000000000000B3470B00A9470B00B5
:105BF0009F470B0095470B0089470B007D470B0023
:105C00000D4F0B00154F0B0071470B0069470B0040
:105C10005F470B0055470B00454F0B00617070004C
:105C200025592D256D2D25645425483A254D3A25B5
:105C300053257A0061736374696D6500000000008C
:105C400000000000394B0B00294B0B002B4B0B00C5
:105C500000000000000000001F4C0B00874C0B00F0
:105C60005D4C0B000D490B004F4C0B00214C0B0001
:105C7000314C0B00814C0B00414C0B00194C0B00BC
:105C80000000000000000000194D0B00854D0B00C6
:105C90005D4D0B000D490B002D4D0B00494D0B00C8
:105CA0003B4D0B00574D0B001B4D0B001F4D0B00C8
:105CB0000000000000000000BD4D0B00074E0B006F
:105CC000DF4D0B00BF4D0B00E74D0B00EF4D0B0000
:105CD000F74D0B00FF4D0B0000000000000000001E
:105CE000AF4E0B00A54E0B009B4E0B00514E0B0010
:105CF0008F4E0B00834E0B000D4F0B00154F0B000A
:105D0000774E0B006F4E0B00654E0B005B4E0B0089
:105D1000454F0B000000000000000000CD4E0B00BE
:105D2000D74E0B00E14E0B00EB4E0B00F54E0B0077
:105D3000014F0B000D4F0B00154F0B001D4F0B00BB
:105D4000294F0B00314F0B003B4F0B00454F0B0011
:105D5000005245454E54206D616C6C6F6320737525
:105D600063636565646564002F6D6E742F776F7271
:105D70006B73706163652F776F726B7370616365AE
:105D80002F4743432D31302D706970656C696E6506
:105D90002F6A656E6B696E732D4743432D31302D2D
:105DA000706970656C696E652D34385F32303230E1
:105DB000313132345F313630363138303634312F8C
:105DC0007372632F6E65776C69622F6E65776C698D
:105DD000622F6C6962632F7374646C69622F7261E5
:105DE0006E642E6300000000A1430B00BD470B0052
:105DF000D9480B00FD480B00A1490B00B1490B002D
:105E0000E5490B00B94E0B001D500B0000000000CF
:105E1000040000001400000003000000474E55007D
:105E2000982D676E61477D437260C5B9E46165EC8A
:045E3000E39E866BFC
:045E3400000000006A
:105E38001300000012000000110000001000000014
:105E48005A0000005A0000000F0000000E00000079
:105E5800345C0B0000E60320000000000000000096
:105E6800000000000000000000000000000000002A
:105E7800000000000000000000000000000000001A
:105E8800000000000000000000000000000000000A
:105E980000000000000000000000000000000000FA
:105EA80000000000000000000000000000000000EA
:0C5EB8000000000000000000F0E70320E4
:105EC400FFFFFFFF00000102030405060708090A9B
:105ED4000B0C0D0E0F101112131415161718191A96
:085EE4001B1C1D1E1F202800DD
:045EEC00785634129E
:04000003B0004020E9
:00000001FF
